:100000000C9437000C9454000C9454000C9454003D
:100010000C9454000C9454000C9454000C94540010
:100020000C9454000C9454000C9454000C94540000
:100030000C9454000C9454000C9454000C945400F0
:100040000C9454000C9454000C9454000C945400E0
:100050000C9454000C9454000C9454000C945400D0
:100060000C9454000C945400312E303300001124B1
:100070001FBECFEFD8E0DEBFCDBF11E0A0E0B1E002
:10008000EEE9F7E002C005900D92A031B107D9F773
:1000900021E0A0E1B1E001C01D92A731B207E1F774
:1000A0000E94CB020C94CD030C940000FF920F939E
:1000B0001F93CF93DF93C82FF62E172F8BE30E9449
:1000C0006C018C2F0E946C010FEF0C0FCC2369F098
:1000D000CF2DD12F10E00F5F1F4F0C0F1D1F8991E7
:1000E0000E946C01C017D107D1F7DF91CF911F910A
:1000F0000F91FF900895CF93DF932091140130E08A
:100100002817390741F09CE690931501809316015A
:10011000DF91CF910895809110010E946C01809130
:100120001401882379F0C0E0D0E0FE01E859FF4FC8
:1001300084910E946C0121968091140190E0C8176F
:10014000D9079CF380E980931501DF91CF91089541
:10015000CF93DF9380911401823049F08CE6809335
:10016000150182E080931601DF91CF91089580E020
:1001700090E00E94A403EC01809110010E946C01A8
:100180008D2F0E946C018C2F0E946C0180E980935E
:100190001501DF91CF910895CF93DF9380911401E2
:1001A000823049F08CE68093150182E0809316013D
:1001B000DF91CF910895809110010E946C010E94FF
:1001C0004202C82F0E944202D82F80E090E00E9495
:1001D000A4036C2F70E0762F66279C012D0F311D34
:1001E000620F731F21E030E06F3F4FEF740710F490
:1001F00020E030E0260F371F2817390730F481E65A
:1002000080931501DF91CF91089580E090E00E94E6
:10021000AA0380E980931501CBCFCF93DF93809120
:100220001401823049F08CE68093150182E08093BE
:100230001601DF91CF910895809110010E946C0109
:100240000E944202C82FD0E0DC2FCC270E9442023D
:10025000C80FD11D80E090E00E94A4038C179D0779
:1002600030F481E680931501DF91CF910895BC01B0
:100270006C1B7D0B80E090E00E94AA0380E98093D4
:100280001501D7CFCF93DF9300D0CDB7DEB78A83E8
:100290008A81882F90E082959295907F9827807F21
:1002A00098278071898382EB90E0FC0180818E32F7
:1002B000D0F385E290E02981FC01208382EB90E07D
:1002C000FC01108282EB90E0FC01108200000F9094
:1002D0000F90DF91CF910895CF93DF9300D000D09E
:1002E000CDB7DEB78C838C818B8381EB90E022E0ED
:1002F000FC01208382EB90E028E2FC01208385E270
:1003000090E0FC01208185E290E02061FC012083E7
:1003100084E290E0FC01208184E290E02061FC0115
:10032000208380E00E9442011A8219820DC08C81D4
:100330000E9442019A818C8189278A838C818695CB
:100340008C8389818F5F89838981883080F38A815A
:100350000E94420181E00E94420182EB90E0FC0198
:1003600080818E32D0F384E290E0FC01208184E22F
:1003700090E02F7EFC01208385E290E0FC0120814B
:1003800085E290E02F7EFC01208382EB90E0FC016F
:1003900080818D35D0F383E290E0FC018081882F4D
:1003A00090E080719927892B91F483E290E0FC0121
:1003B0008081882F90E080719927892BB1F382EB9F
:1003C00090E026E1FC0120838B818C8398CF81EB28
:1003D00090E0FC01108200000F900F900F900F90A2
:1003E000DF91CF910895CF93DF930F92CDB7DEB712
:1003F00082EB90E0FC0180818E32D0F382EB90E0C2
:10040000FC01108282EB90E0FC01108282EB90E014
:10041000FC0180818C30D0F383E290E0FC0180818C
:100420008071898382EB90E0FC0180818731D0F379
:1004300083E290E0FC018081882F90E08071992711
:10044000982F8981890F898382EB90E0FC0180815C
:100450008232D0F383E290E0FC018081882F90E02B
:1004600080719927982F8981890F89838981882FA5
:1004700090E0880F991F880F991F80780F90DF9167
:10048000CF910895CF93DF9300D000D0CDB7DEB7E2
:1004900081EB90E022E0FC01208384E290E0FC010B
:1004A000208184E290E02F7EFC01208385E290E0B1
:1004B000FC01208185E290E02061FC0120831A820A
:1004C00083E290E0FC018081882F90E08071992781
:1004D000892BB1F783E290E0FC018081882F90E0C6
:1004E00080719927892BB1F782EB90E0FC01108293
:1004F00082EB90E0FC0110821B8219820FC00E94E7
:10050000F3018C838A8186959C81890F8A839B81E4
:100510008C8189278B8389818F5F8983898188304A
:1005200070F30E94F301982F8B8189278B8382EBD4
:1005300090E0FC0180818D35D0F38B818823C9F058
:1005400085E290E0FC01208185E290E02F7EFC01B5
:10055000208384E290E0FC01208184E290E020612D
:10056000FC01208382EB90E0FC018081823AD0F391
:1005700094CF82EB90E0FC0180818B38D0F381EB4B
:1005800090E0FC0110828A810F900F900F900F90E5
:10059000DF91CF91089580E880BF8FEF85B984B94E
:1005A00087B91AB888B98BB980E68093B60087E816
:1005B0008093640062E071E08CE00E94560010922B
:1005C00016011EE60CE652E0F52E60E9C62E74E038
:1005D000D72EE1E6BE2EFDE6EF2E19C09091100158
:1005E000913009F466C008F45CC0923091F1933008
:1005F00061F5823009F472C000931501F092160182
:100600008CE60E946C01809116010E946C010E9490
:100610004202809312010E944202809310010E94C4
:100620004202809313010E944202809311010E94B2
:100630004202809314011092160190911201903899
:1006400069F2109315018EE6DCCFE09215018DE67C
:10065000D8CF823089F60E946C010E944202C82FD6
:100660000E944202D82F80E090E00E94A403BC01C7
:100670006D0F711D2C2F30E0322F2227620F731F58
:1006800021E030E06F3F4FEF740710F420E030E0DE
:10069000260F371F28173907C0F5B092150181E6DC
:1006A000B0CF8430D1F100931501D09216018CE6C1
:1006B000A8CF823009F0A0CF80E090E00E94A40390
:1006C000EC0181E00E946C018D2F0E946C018C2F47
:1006D0000E946C01C092150180E993CF83E00E94D3
:1006E0006C010E944202C82FD0E0DC2FCC270E9470
:1006F0004202C80FD11D80E090E00E94A4038C1735
:100700009D0758F2BC016C1B7D0B80E090E00E94BD
:10071000AA03C092150180E974CF80E00E946C01A9
:10072000809114018823A9F3C0E0D0E0FE01E859CC
:10073000FF4F84910E946C0121968091140190E0FA
:10074000C817D9079CF3E5CFA8E1B0E042E050E03C
:100750000C94B1030E94BF03272F0C94C003DC014B
:10076000CB01FC01F999FECF06C0F2BDE1BDF89ABC
:10077000319600B40D9241505040B8F70895262F9D
:10078000F999FECF1FBA92BD81BD20BD0FB6F89476
:0E079000FA9AF99A0FBE01960895F894FFCFD9
:10079E00FFFF76657273696F6E20666F757200006B
:00000001FF
