:100000000C9437000C9454000C9454000C9454003D
:100010000C9454000C9454000C9454000C94540010
:100020000C9454000C9454000C9454000C94540000
:100030000C9454000C9454000C9454000C945400F0
:100040000C9454000C9454000C9454000C945400E0
:100050000C9454000C9454000C9454000C945400D0
:100060000C9454000C945400312E303300001124B1
:100070001FBECFEFD8E0DEBFCDBF11E0A0E0B1E002
:10008000E0E7FBE102C005900D92A031B107D9F77E
:1000900021E0A0E1B1E001C01D92AF31B207E1F76C
:1000A0000E94490B0C94B60D0C940000FF920F9324
:1000B0001F93CF93DF93C82FF62E172F8BE30E9449
:1000C000EA098C2F0E94EA090FEF0C0FCC2369F08C
:1000D000CF2DD12F10E00F5F1F4F0C0F1D1F8991E7
:1000E0000E94EA09C017D107D1F7DF91CF911F9184
:1000F0000F91FF900895CF93DF932091140130E08A
:100100002817390741F09CE690931D0180931E014A
:10011000DF91CF910895809110010E94EA098091AA
:100120001401882379F0C0E0D0E0FE01E859FF4FC8
:1001300084910E94EA0921968091140190E0C817E9
:10014000D9079CF380E980931D01DF91CF91089539
:100150004F925F926F927F928F929F92AF92BF92D7
:10016000CF92DF92EF92FF920F931F93CF93DF9383
:10017000CDB7DEB762970FB6F894DEBF0FBECDBF26
:100180007E876D87FA01DC01CD90DD90ED90FC90CB
:10019000139714960D911D912D913C9117974080C6
:1001A0005180628073804481558166817781498363
:1001B0005A836B837C8360857185828593856D838B
:1001C0007E838F83988784859585A685B785898763
:1001D0009A87AB87BC87812C912C54014F86588A13
:1001E000698A7A8A97E4891A96E8990A98ECA90AA2
:1001F00091E6B90AD901C801880F991FAA1FBB1F30
:10020000880F991FAA1FBB1F880F991FAA1FBB1F0A
:10021000880F991FAA1FBB1F4F84588869887A8846
:10022000840D951DA61DB71DB901A801E5E07695C1
:10023000679557954795EA95D1F749805A806B8025
:100240007C80440D551D661D771D84279527A627A4
:10025000B727B501A401400F511F621F731F8427E8
:100260009527A627B727C80ED91EEA1EFB1ED70161
:10027000C601880F991FAA1FBB1F880F991FAA1FAD
:10028000BB1F880F991FAA1FBB1F880F991FAA1F8A
:10029000BB1F4D815E816F817885840F951FA61FDE
:1002A000B71FB701A601E5E0769567955795479585
:1002B000EA95D1F749845A846B847C84440D551D9A
:1002C000661D771D84279527A627B727B501A401AA
:1002D0004C0D5D1D6E1D7F1D84279527A627B72712
:1002E000080F191F2A1F3B1F40E2841647E394069C
:1002F0004FEEA40646ECB40609F074CFAD85BE857A
:10030000CD92DD92ED92FC921397FD01048315834B
:100310002683378362960FB6F894DEBF0FBECDBF3B
:10032000DF91CF911F910F91FF90EF90DF90CF90D1
:10033000BF90AF909F908F907F906F905F904F9005
:1003400008954F925F926F927F928F929F92AF9299
:10035000BF92CF92DF92EF92FF920F931F93CF93B2
:10036000DF93CDB7DEB762970FB6F894DEBF0FBE4E
:10037000CDBF7E876D87FA01DC01CD90DD90ED90D9
:10038000FC90139714960D911D912D913C91179708
:10039000408451846284738444855585668577855D
:1003A00049835A836B837C836081718182819381CD
:1003B0006D837E838F83988784819581A681B781A1
:1003C00089879A87AB87BC87F0E28F2EF7E39F2E51
:1003D000FFEEAF2EF6ECBF2E4F86588A698A7A8AD6
:1003E000D701C601880F991FAA1FBB1F880F991F2D
:1003F000AA1FBB1F880F991FAA1FBB1F880F991F19
:10040000AA1FBB1F4F84588869887A88840D951D60
:10041000A61DB71DB701A601E5E07695679557952E
:100420004795EA95D1F749805A806B807C80440DCE
:10043000551D661D771D84279527A627B727B70169
:10044000A601480D591D6A1D7B1D84279527A627E7
:10045000B727081B190B2A0B3B0BD901C801880FC2
:10046000991FAA1FBB1F880F991FAA1FBB1F880FA8
:10047000991FAA1FBB1F880F991FAA1FBB1F4D8161
:100480005E816F817885840F951FA61FB71FB90104
:10049000A801E5E07695679557954795EA95D1F7D8
:1004A00049845A846B847C84440D551D661D771DD8
:1004B00084279527A627B727B901A801480D591DFC
:1004C0006A1D7B1D84279527A627B727C81AD90A36
:1004D000EA0AFB0A49EB841A49E7940A47E3A40AAB
:1004E0004EE9B40A09F07CCFAD85BE85CD92DD9290
:1004F000ED92FC921397FD010483158326833783C5
:1005000062960FB6F894DEBF0FBECDBFDF91CF91DC
:100510001F910F91FF90EF90DF90CF90BF90AF9021
:100520009F908F907F906F905F904F9008957F92F3
:100530008F929F92AF92BF92CF92DF92EF92FF92F3
:100540000F931F93CF93DF93CDB7DEB7FE01709665
:10055000E190F190E114F10409F443C08F0138E116
:10056000A32E30E0B32E712CF80182809380A70176
:10057000B501808191810E94990DC72CD12C6E2DDF
:10058000C6018C579F4F0E94A30DC601880F991F6B
:10059000B40184589F4F0E94B10DAE0CBF1CF801EE
:1005A000E480F58073940A5F1F4FE114F104E1F6D3
:1005B00061E374ED89E890E00E94B10D672D88E851
:1005C00090E00E94A30DDF91CF911F910F91FF90BA
:1005D000EF90DF90CF90BF90AF909F908F907F90E3
:1005E0000895712CE5CF4F925F926F927F928F9218
:1005F0009F92AF92BF92CF92DF92EF92FF920F93B2
:100600001F93CF93DF9389E890E00E94930D81338D
:10061000944D89F0DF91CF911F910F91FF90EF9052
:10062000DF90CF90BF90AF909F908F907F906F9012
:100630005F904F90089588E890E00E948B0D482EBF
:100640008823C1F184E8A82E80E0B82E9CE7692EAB
:1006500090E0792EC8E1D0E0512CC5010E948B0DAD
:10066000C82EC3010E94930D4C01CC20D1F0CA9436
:10067000D12C8FEFC81AD80ACC0EDD1E7E012FEFC9
:10068000E21AF20ACE010E948B0D84010F5F1F4F08
:10069000682FC4010E94A30DE7014801EC14FD047A
:1006A00069F753948FEFA81AB80A22E0620E711C02
:1006B0004510D3CF69E370E389E890E0DF91CF91F3
:1006C0001F910F91FF90EF90DF90CF90BF90AF9070
:1006D0009F908F907F906F905F904F900C94B10D92
:1006E0002F923F924F925F926F927F928F929F9242
:1006F000AF92BF92CF92DF92EF92FF920F931F9330
:10070000CF93DF93CDB7DEB760970FB6F894DEBF17
:100710000FBECDBF809114018031F9F08CE680933B
:100720001D0180E180931E0160960FB6F894DEBF34
:100730000FBECDBFDF91CF911F910F91FF90EF9032
:10074000DF90CF90BF90AF909F908F907F906F90F1
:100750005F904F903F902F900895809110010E94DC
:10076000EA09809114019E012F5F3F4F69018823A0
:1007700081F0790100E010E00E94C00AF701819346
:100780007F010F5F1F4F8091140190E00817190738
:100790009CF31F921F9288E090E09F938F93DF92CB
:1007A000CF921F9280E18F930E94970289E890E098
:1007B0000E94930D0FB6F894DEBF0FBECDBF8133FC
:1007C000944D21F080E980931D01AECF88E890E040
:1007D0000E948B0D282E8823C9F184E8682E80E0C2
:1007E000782E9CE7492E90E0592E08E110E0312C3C
:1007F000C3010E948B0D882EC2010E94930D7C01C3
:100800008820D9F08A94912CFFEF8F1A9F0A800ECE
:10081000911E58012FEFA21AB20AC8010E948B0D37
:1008200067013FEFC31AD30A682FC7010E94A30DC7
:1008300085017601A814B90461F733948FEF681A23
:10084000780A92E0490E511C2310D2CF69E370E37D
:1008500089E890E00E94B10DB5CF2F923F924F9260
:100860005F926F927F928F929F92AF92BF92CF9240
:10087000DF92EF92FF920F931F93CF93DF93CDB749
:10088000DEB768970FB6F894DEBF0FBECDBF7C0110
:100890001B0148E050E060E070E0CE0101960E944C
:1008A0007B0D89809A80AB80BC800D811E812F8159
:1008B0003885D70118964D905D906D907C901B9770
:1008C0001C964D915D916D917C911F9749875A8738
:1008D0006B877C874D915D916D917C9113974D87CE
:1008E0005E876F87788B14964D915D916D917C91A9
:1008F0001797498B5A8B6B8B7C8BF0E2CF2EF7E3EB
:10090000DF2EFFEEEF2EF6ECFF2E4D8A5E8A6F8A09
:10091000788ED501C401880F991FAA1FBB1F880FAD
:10092000991FAA1FBB1F880F991FAA1FBB1F880FE3
:10093000991FAA1FBB1F4D885E886F88788C840D15
:10094000951DA61DB71DB501A401E5E07695679537
:1009500057954795EA95D1F749845A846B847C84EE
:10096000440D551D661D771D84279527A627B7279B
:10097000B501A4014C0D5D1D6E1D7F1D84279527BB
:10098000A627B727081B190B2A0B3B0BD901C80157
:10099000880F991FAA1FBB1F880F991FAA1FBB1F73
:1009A000880F991FAA1FBB1F880F991FAA1FBB1F63
:1009B0004D855E856F857889840F951FA61FB71FAB
:1009C000B901A801E5E07695679557954795EA95B1
:1009D000D1F749885A886B887C88440D551D661D5F
:1009E000771D84279527A627B727B901A8014C0DA5
:1009F0005D1D6E1D7F1D84279527A627B727881AA2
:100A0000990AAA0ABB0A49EBC41A49E7D40A47E380
:100A1000E40A4EE9F40A09F07CCFD1018D929D924F
:100A2000AD92BC921397F10104831583268337831B
:100A300068960FB6F894DEBF0FBECDBFDF91CF91A1
:100A40001F910F91FF90EF90DF90CF90BF90AF90EC
:100A50009F908F907F906F905F904F903F902F90DE
:100A600008954F925F926F927F928F929F92AF9272
:100A7000BF92CF92DF92EF92FF920F931F93CF938B
:100A8000DF93CDB7DEB7E0970FB6F894DEBF0FBEA9
:100A9000CDBF809114018830E9F08CE680931D0170
:100AA00088E080931E01E0960FB6F894DEBF0FBE7B
:100AB000CDBFDF91CF911F910F91FF90EF90DF900D
:100AC000CF90BF90AF909F908F907F906F905F90EE
:100AD0004F900895809110010E94EA0940E150E092
:100AE00068E070E0CE0101960E947B0D48E050E086
:100AF00060E070E0CE0141960E947B0DC988DA88E3
:100B0000EB88FC880D891E892F89388D49845A8489
:100B10006B847C844D855E856F85788949A35AA353
:100B20006BA37CA369817A818B819C816DA37EA359
:100B30008FA398A78D819E81AF81B88589A79AA739
:100B4000ABA7BCA7F0E28F2EF7E39F2EFFEEAF2EF0
:100B5000F6ECBF2E4DA65EA66FA678AAD701C601F9
:100B6000880F991FAA1FBB1F880F991FAA1FBB1FA1
:100B7000880F991FAA1FBB1F880F991FAA1FBB1F91
:100B80004DA45EA46FA478A8840D951DA61DB71D65
:100B9000B701A601E5E07695679557954795EA95E3
:100BA000D1F749A05AA06BA07CA0440D551D661D2D
:100BB000771D84279527A627B727B701A601480DDB
:100BC000591D6A1D7B1D84279527A627B727081B5B
:100BD000190B2A0B3B0BD901C801880F991FAA1FBB
:100BE000BB1F880F991FAA1FBB1F880F991FAA1F21
:100BF000BB1F880F991FAA1FBB1F4DA15EA16FA12C
:100C000078A5840F951FA61FB71FB901A801E5E0BD
:100C10007695679557954795EA95D1F749A45AA4D3
:100C20006BA47CA4440D551D661D771D8427952754
:100C3000A627B727B901A801480D591D6A1D7B1DBC
:100C400084279527A627B727C81AD90AEA0AFB0AD4
:100C500049EB841A49E7940A47E3A40A4EE9B40A27
:100C600009F07CCFC98EDA8EEB8EFC8E0D8F1E8F35
:100C70002F8F38A38E01075E1F4F7E0151E2E50ED4
:100C8000F11CD8018D918D010E94EA090E151F05F6
:100C9000C1F780E980931D0106CFEF92FF920F9379
:100CA0001F93CF93DF93CDB7DEB760970FB6F8945D
:100CB000DEBF0FBECDBF80911401803199F08CE66C
:100CC00080931D0180E180931E0160960FB6F89419
:100CD000DEBF0FBECDBFDF91CF911F910F91FF906F
:100CE000EF90089540E150E068E070E0CE01019699
:100CF0000E947B0D809110010E94EA098E010F5F16
:100D00001F4F7E0181E1E80EF11CF80181918F01F6
:100D10000E94EA090E151F05C1F780E980931D01A5
:100D2000D4CF2F923F924F925F926F927F928F9289
:100D30009F92AF92BF92CF92DF92EF92FF920F936A
:100D40001F93CF93DF93CDB7DEB7EA970FB6F89432
:100D5000DEBF0FBECDBF809114018830F9F08CE664
:100D600080931D0188E080931E01EA960FB6F894E7
:100D7000DEBF0FBECDBFDF91CF911F910F91FF90CE
:100D8000EF90DF90CF90BF90AF909F908F907F902B
:100D90006F905F904F903F902F9008958091100139
:100DA0000E94EA0980911401882399F07E0191E262
:100DB000E90EF11C00E010E00E94C00AD7018D93FB
:100DC0007D010F5F1F4F8091140190E008171907F4
:100DD0009CF340E150E068E070E0CE0101960E9493
:100DE0007B0DC9A0DAA0EBA0FCA00DA11EA12FA134
:100DF00038A549845A846B847C844D855E856F85D3
:100E0000788949A75AA76BA77CA769817A818B81CA
:100E10009C816DA77EA78FA798AB8D819E81AF81A6
:100E2000B88589AB9AABABABBCABF0E28F2EF7E3E6
:100E30009F2EFFEEAF2EF6ECBF2E4FAA58AE69AE36
:100E40007AAED701C601880F991FAA1FBB1F880F52
:100E5000991FAA1FBB1F880F991FAA1FBB1F880FAE
:100E6000991FAA1FBB1F4FA858AC69AC7AAC840D60
:100E7000951DA61DB71DB701A601E5E076956795FE
:100E800057954795EA95D1F749A45AA46BA47CA439
:100E9000440D551D661D771D84279527A627B72766
:100EA000B701A601480D591D6A1D7B1D8427952792
:100EB000A627B727081B190B2A0B3B0BD901C80122
:100EC000880F991FAA1FBB1F880F991FAA1FBB1F3E
:100ED000880F991FAA1FBB1F880F991FAA1FBB1F2E
:100EE0004DA55EA56FA578A9840F951FA61FB71FF6
:100EF000B901A801E5E07695679557954795EA957C
:100F0000D1F749A85AA86BA87CA8440D551D661DA9
:100F1000771D84279527A627B727B901A801480D73
:100F2000591D6A1D7B1D84279527A627B727C81A38
:100F3000D90AEA0AFB0A49EB841A49E7940A47E30B
:100F4000A40A4EE9B40A09F07CCFC0921501D092F0
:100F50001601E0921701F092180100931901109305
:100F60001A0120931B0130931C01809117018111FC
:100F7000BCC1809118018111B8C180911901811102
:100F8000B4C180911A018111B0C180911B018111FE
:100F9000ACC180911C018111A8C10091160110E023
:100FA000102F0027809115012801480E511C5EAAC0
:100FB0004DAA1E0121E1220E311C48E050E060E004
:100FC00070E0C1010E947B0D09891A892B893C8937
:100FD0008D889E88AF88B88C49855A856B857C85BD
:100FE00049A75AA76BA77CA76D857E858F859889B1
:100FF0006DA77EA78FA798AB89819A81AB81BC81B1
:1010000089AB9AABABABBCAB4D805E806F80788414
:10101000A0E2CA2EA7E3DA2EAFEEEA2EA6ECFA2E55
:101020004FAA58AE69AE7AAED901C801880F991F90
:10103000AA1FBB1F880F991FAA1FBB1F880F991FCC
:10104000AA1FBB1F880F991FAA1FBB1F49A45AA420
:101050006BA47CA4840D951DA61DB71DB901A80124
:10106000E5E07695679557954795EA95D1F74DA4B4
:101070005EA46FA478A8440D551D661D771D8427B6
:101080009527A627B727B901A8014C0D5D1D6E1D38
:101090007F1D84279527A627B727881A990AAA0AA9
:1010A000BB0AD501C401880F991FAA1FBB1F880F57
:1010B000991FAA1FBB1F880F991FAA1FBB1F880F4C
:1010C000991FAA1FBB1F49A95AA96BA97CA9840F04
:1010D000951FA61FB71FB501A401E5E0769567959A
:1010E00057954795EA95D1F74FA858AC69AC7AACBB
:1010F000440D551D661D771D84279527A627B72704
:10110000B501A4014C0D5D1D6E1D7F1D8427952723
:10111000A627B727081B190B2A0B3B0B49EBC41A50
:1011200049E7D40A47E3E40A4EE9F40A09F07CCF20
:10113000098F1A8F2B8F3C8F8A8D90E0982F8827EC
:10114000298D820F911D0DA91EA9080F191F21E0DD
:1011500030E00F3F5FEF150710F420E030E0200F84
:10116000311F2817390720F481E680931D01FDCD3A
:1011700020E030E0C12CD12C7601812C912C54013F
:101180004FAA58AE69AE7AAE67E4861A66E8960A48
:1011900068ECA60A61E6B60AD701C601880F991F56
:1011A000AA1FBB1F880F991FAA1FBB1F880F991F5B
:1011B000AA1FBB1F880F991FAA1FBB1F49A85AA8A7
:1011C0006BA87CA8840D951DA61DB71DB701A601AF
:1011D000E5E07695679557954795EA95D1F74FA83D
:1011E00058AC69AC7AAC440D551D661D771D84273B
:1011F0009527A627B727B501A4014C0D5D1D6E1DCF
:101200007F1D84279527A627B727080F191F2A1F98
:101210003B1FD901C801880F991FAA1FBB1F880F48
:10122000991FAA1FBB1F880F991FAA1FBB1F880FDA
:10123000991FAA1FBB1F49A55AA56BA57CA5840FA2
:10124000951FA61FB71FB901A801E5E07695679520
:1012500057954795EA95D1F74DA45EA46FA478A859
:10126000440D551D661D771D84279527A627B72792
:10127000B501A401400F511F621F731F84279527DA
:10128000A627B727C80ED91EEA1EFB1E40E2841609
:1012900047E394064FEEA40646ECB40609F074CF7B
:1012A000098B1A8B2B8B3C8BCD8ADE8AEF8AF88ECA
:1012B0001F921F9280E090E09F938F933F922F9216
:1012C0001F9288E08F930E94970289E890E00E9425
:1012D000930D0FB6F894DEBF0FBECDBF8133944D92
:1012E00041F080E980931D0140CD82E680931D018D
:1012F0003CCD88E890E00E948B0D282E8823C9F110
:1013000084E8682E80E0782E9CE7492E90E0592EE4
:1013100008E110E0312CC3010E948B0D882EC20120
:101320000E94930D7C018820D9F08A94912C8FEF34
:10133000881A980A800E911E58019FEFA91AB90ABF
:10134000C8010E948B0D6701AFEFCA1ADA0A682F35
:10135000C7010E94A30D85017601A814B90461F7A5
:101360003394BFEF6B1A7B0AE2E04E0E511C231040
:10137000D2CF69E370E389E890E00E94B10DB1CF6C
:10138000CF93DF9300D0CDB7DEB78A838A81882FD1
:1013900090E082959295907F9827807F9827807122
:1013A000898382EB90E0FC0180818E32D0F385E26C
:1013B00090E02981FC01208382EB90E0FC01108207
:1013C00082EB90E0FC01108200000F900F90DF9103
:1013D000CF910895CF93DF9300D000D0CDB7DEB783
:1013E0008C838C818B8381EB90E022E0FC01208355
:1013F00082EB90E028E2FC01208385E290E0FC0192
:10140000208185E290E02061FC01208384E290E06D
:10141000FC01208184E290E02061FC01208380E0D7
:101420000E94C0091A8219820DC08C810E94C009D5
:101430009A818C8189278A838C8186958C83898186
:101440008F5F89838981883080F38A810E94C009F7
:1014500081E00E94C00982EB90E0FC0180818E3225
:10146000D0F384E290E0FC01208184E290E02F7EC2
:10147000FC01208385E290E0FC01208185E290E080
:101480002F7EFC01208382EB90E0FC0180818D3572
:10149000D0F383E290E0FC018081882F90E080719E
:1014A0009927892B91F483E290E0FC018081882FB9
:1014B00090E080719927892BB1F382EB90E026E1CF
:1014C000FC0120838B818C8398CF81EB90E0FC0121
:1014D000108200000F900F900F900F90DF91CF912E
:1014E0000895CF93DF930F92CDB7DEB782EB90E0F4
:1014F000FC0180818E32D0F382EB90E0FC011082FF
:1015000082EB90E0FC01108282EB90E0FC01808194
:101510008C30D0F383E290E0FC018081807189837C
:1015200082EB90E0FC0180818731D0F383E290E090
:10153000FC018081882F90E080719927982F898104
:10154000890F898382EB90E0FC0180818232D0F3A5
:1015500083E290E0FC018081882F90E080719927E0
:10156000982F8981890F89838981882F90E0880F3E
:10157000991F880F991F80780F90DF91CF91089560
:10158000CF93DF9300D000D0CDB7DEB781EB90E0F2
:1015900022E0FC01208384E290E0FC01208184E2CF
:1015A00090E02F7EFC01208385E290E0FC01208109
:1015B00085E290E02061FC0120831A8283E290E0C2
:1015C000FC018081882F90E080719927892BB1F7E9
:1015D00083E290E0FC018081882F90E08071992760
:1015E000892BB1F782EB90E0FC01108282EB90E056
:1015F000FC0110821B8219820FC00E94710A8C8329
:101600008A8186959C81890F8A839B818C81892719
:101610008B8389818F5F89838981883070F30E94F1
:10162000710A982F8B8189278B8382EB90E0FC01D4
:1016300080818D35D0F38B818823C9F085E290E0DD
:10164000FC01208185E290E02F7EFC01208384E272
:1016500090E0FC01208184E290E02061FC01208385
:1016600082EB90E0FC018081823AD0F394CF82EB50
:1016700090E0FC0180818B38D0F381EB90E0FC019D
:1016800010828A810F900F900F900F90DF91CF9171
:101690000895CF93DF93CDB7DEB7E4970FB6F894F4
:1016A000DEBF0FBECDBF80E880BF8FEF85B984B9A4
:1016B00087B91AB888B98BB980E68093B60087E8F5
:1016C0008093640062E071E08CE00E94560010920A
:1016D0001E019E012F5E3F4F3AA329A3AE014F5D2D
:1016E0005F4F5CA34BA30EE6202E8CE6382E1BC06A
:1016F00090911001923009F443C098F5992309F4B0
:101700004AC0913009F041C0803109F470C0309274
:101710001D0160E160931E018CE60E94EA09809140
:101720001E010E94EA090E94C00A809312010E94D1
:10173000C00A809310010E94C00A809313010E9486
:10174000C00A809311010E94C00A80931401109274
:101750001E0190911201903859F220921D018EE6DF
:10176000DCCF933011F1943081F4883009F47BC0E0
:1017700030921D01A8E06A2E60921E018CE6CDCF4A
:101780000E94910680911D01C8CF8DE6682E60925F
:101790001D018DE6C2CF843009F447C130921D018E
:1017A00084E080931E018CE6B8CF803109F0AFCF82
:1017B00040E150E068E070E0CE0101960E947B0DB0
:1017C000809110010E94EA098E010F5F1F4FD8011E
:1017D0008D918D010E94EA0949A05AA04016510638
:1017E000B1F790E9592E50921D0180E996CF81E022
:1017F0000E94EA0980911401882391F0FE0131963C
:101800007F0100E010E00E94C00AD7018D937D01A6
:101810000F5F1F4F8091140190E0081719079CF388
:101820001F921F9288E090E09F938F9381E090E059
:101830008C0F9D1F9F938F931F9290E19F930E9407
:10184000970289E890E00E94930D0FB6F894DEBFEE
:101850000FBECDBF8133944D09F403C160E960939D
:101860001D0180E95ACF84E00E94EA0940E150E07E
:1018700068E070E0CE0101960E947B0D48E050E0E8
:1018800060E070E0CE0141960E947B0DC988DA8845
:10189000EB88FC880D891E892F89388D49855A85EA
:1018A0006B857C854DA35EA36FA378A76D857E8530
:1018B0008F85988969A77AA78BA79CA789819A8128
:1018C000AB81BC818DA79EA7AFA7B8AB4D805E80D2
:1018D0006F807884F0E28F2EF7E39F2EFFEEAF2E1D
:1018E000F6ECBF2E49AA5AAA6BAA7CAAD701C60158
:1018F000880F991FAA1FBB1F880F991FAA1FBB1F04
:10190000880F991FAA1FBB1F880F991FAA1FBB1FF3
:101910004DA05EA06FA078A4840D951DA61DB71DD7
:10192000B701A601E5E07695679557954795EA9545
:10193000D1F749A45AA46BA47CA4440D551D661D7F
:10194000771D84279527A627B727B701A601480D3D
:10195000591D6A1D7B1D84279527A627B727081BBD
:10196000190B2A0B3B0BD901C801880F991FAA1F1D
:10197000BB1F880F991FAA1FBB1F880F991FAA1F83
:10198000BB1F880F991FAA1FBB1F4DA55EA56FA582
:1019900078A9840F951FA61FB71FB901A801E5E01C
:1019A0007695679557954795EA95D1F749A85AA82E
:1019B0006BA87CA8440D551D661D771D84279527AF
:1019C000A627B727B901A801480D591D6A1D7B1D1F
:1019D00084279527A627B727C81AD90AEA0AFB0A37
:1019E00049EB841A49E7940A47E3A40A4EE9B40A8A
:1019F00009F07CCFC98EDA8EEB8EFC8E0D8F1E8F98
:101A00002F8F38A38E01075E1F4FD8018D918D0156
:101A10000E94EA094BA05CA004151505B1F790E9F6
:101A2000592E50921D0180E978CE80E00E94EA098B
:101A300080911401882381F000E010E0F801E8595A
:101A4000FF4F84910E94EA090F5F1F4F809114019C
:101A500090E00817190794F350E950931D0180E9AD
:101A60005CCE88E890E00E948B0D89A78823E1F185
:101A7000B4E86B2EB0E07B2E1CE7412E10E0512E17
:101A800008E110E01DA2C3010E948B0D882EC20147
:101A90000E94930D7C018820D9F08A94912CBFEF8D
:101AA0008B1A9B0A800E911E5801EFEFAE1ABE0AE8
:101AB000C8010E948B0D6701FFEFCF1ADF0A682F64
:101AC000C7010E94A30D85017601A814B90461F72E
:101AD0002DA12F5F2DA33FEF631A730A42E0440E3E
:101AE000511C59A55213CFCF69E370E389E890E008
:101AF0000E94B10DB3CEDC01CB01FC01F999FECF00
:101B000006C0F2BDE1BDF89A319600B40D92415085
:101B10005040B8F70895F999FECF92BD81BDF89A6B
:101B2000992780B50895A8E1B0E042E050E00C9418
:101B30007D0DDC01CB0103C02D910E94A40D41500D
:101B40005040D0F70895262FF999FECF1FBA92BDC5
:101B500081BD20BD0FB6F894FA9AF99A0FBE01968E
:101B600008950E94A30D272F0C94A40DF894FFCF85
:101B7000FFFF76657273696F6E2066697665000097
:00000001FF
