:100000000C9437000C9454000C9454000C9454003D
:100010000C9454000C9454000C9454000C94540010
:100020000C9454000C9454000C9454000C94540000
:100030000C9454000C9454000C9454000C945400F0
:100040000C9454000C9454000C9454000C945400E0
:100050000C9454000C9454000C9454000C945400D0
:100060000C9454000C945400312E303300001124B1
:100070001FBECFEFD8E0DEBFCDBF11E0A0E0B1E002
:10008000E4E2F3E102C005900D92A431B107D9F783
:1000900021E0A4E1B1E001C01D92A332B207E1F773
:1000A0000E94FD070C9490090C940000FF920F939E
:1000B0001F93CF93DF93C82FF62E172F8BE30E9449
:1000C0009E068C2F0E949E060FEF0C0FCC2369F02A
:1000D000CF2DD12F10E00F5F1F4F0C0F1D1F8991E7
:1000E0000E949E06C017D107D1F7DF91CF911F91D3
:1000F0000F91FF900895CF93DF932091180130E086
:100100002817390741F09CE6909321018093220142
:10011000DF91CF910895809114010E949E068091F5
:100120001801882379F0C0E0D0E0FE01E859FF4FC4
:1001300084910E949E0621968091180190E0C81734
:10014000D9079CF380E980932101DF91CF91089535
:100150004F925F926F927F928F929F92AF92BF92D7
:10016000CF92DF92EF92FF920F931F93CF93DF9383
:10017000CDB7DEB762970FB6F894DEBF0FBECDBF26
:100180007E876D87FA01DC01CD90DD90ED90FC90CB
:10019000139714960D911D912D913C9117974080C6
:1001A0005180628073804481558166817781498363
:1001B0005A836B837C8360857185828593856D838B
:1001C0007E838F83988784859585A685B785898763
:1001D0009A87AB87BC87812C912C54014F86588A13
:1001E000698A7A8A97E4891A96E8990A98ECA90AA2
:1001F00091E6B90AD901C801880F991FAA1FBB1F30
:10020000880F991FAA1FBB1F880F991FAA1FBB1F0A
:10021000880F991FAA1FBB1F4F84588869887A8846
:10022000840D951DA61DB71DB901A801E5E07695C1
:10023000679557954795EA95D1F749805A806B8025
:100240007C80440D551D661D771D84279527A627A4
:10025000B727B501A401400F511F621F731F8427E8
:100260009527A627B727C80ED91EEA1EFB1ED70161
:10027000C601880F991FAA1FBB1F880F991FAA1FAD
:10028000BB1F880F991FAA1FBB1F880F991FAA1F8A
:10029000BB1F4D815E816F817885840F951FA61FDE
:1002A000B71FB701A601E5E0769567955795479585
:1002B000EA95D1F749845A846B847C84440D551D9A
:1002C000661D771D84279527A627B727B501A401AA
:1002D0004C0D5D1D6E1D7F1D84279527A627B72712
:1002E000080F191F2A1F3B1F40E2841647E394069C
:1002F0004FEEA40646ECB40609F074CFAD85BE857A
:10030000CD92DD92ED92FC921397FD01048315834B
:100310002683378362960FB6F894DEBF0FBECDBF3B
:10032000DF91CF911F910F91FF90EF90DF90CF90D1
:10033000BF90AF909F908F907F906F905F904F9005
:1003400008954F925F926F927F928F929F92AF9299
:10035000BF92CF92DF92EF92FF920F931F93CF93B2
:10036000DF93CDB7DEB762970FB6F894DEBF0FBE4E
:10037000CDBF7E876D87FA01DC01CD90DD90ED90D9
:10038000FC90139714960D911D912D913C91179708
:10039000408451846284738444855585668577855D
:1003A00049835A836B837C836081718182819381CD
:1003B0006D837E838F83988784819581A681B781A1
:1003C00089879A87AB87BC87F0E28F2EF7E39F2E51
:1003D000FFEEAF2EF6ECBF2E4F86588A698A7A8AD6
:1003E000D701C601880F991FAA1FBB1F880F991F2D
:1003F000AA1FBB1F880F991FAA1FBB1F880F991F19
:10040000AA1FBB1F4F84588869887A88840D951D60
:10041000A61DB71DB701A601E5E07695679557952E
:100420004795EA95D1F749805A806B807C80440DCE
:10043000551D661D771D84279527A627B727B70169
:10044000A601480D591D6A1D7B1D84279527A627E7
:10045000B727081B190B2A0B3B0BD901C801880FC2
:10046000991FAA1FBB1F880F991FAA1FBB1F880FA8
:10047000991FAA1FBB1F880F991FAA1FBB1F4D8161
:100480005E816F817885840F951FA61FB71FB90104
:10049000A801E5E07695679557954795EA95D1F7D8
:1004A00049845A846B847C84440D551D661D771DD8
:1004B00084279527A627B727B901A801480D591DFC
:1004C0006A1D7B1D84279527A627B727C81AD90A36
:1004D000EA0AFB0A49EB841A49E7940A47E3A40AAB
:1004E0004EE9B40A09F07CCFAD85BE85CD92DD9290
:1004F000ED92FC921397FD010483158326833783C5
:1005000062960FB6F894DEBF0FBECDBFDF91CF91DC
:100510001F910F91FF90EF90DF90CF90BF90AF9021
:100520009F908F907F906F905F904F9008957F92F3
:100530008F929F92AF92BF92CF92DF92EF92FF92F3
:100540000F931F93CF93DF93CDB7DEB7FE01709665
:10055000E190F190E114F10409F443C08F0134E11A
:10056000A32E30E0B32E712CF80182809380A70176
:10057000B501808191810E947309C72CD12C6E2D09
:10058000C60180589F4F0E947D09C601880F991FA0
:10059000B40188589F4F0E948B09AE0CBF1CF80114
:1005A000E480F58073940A5F1F4FE114F104E1F6D3
:1005B00061E374ED85E890E00E948B09672D84E883
:1005C00090E00E947D09DF91CF911F910F91FF90E4
:1005D000EF90DF90CF90BF90AF909F908F907F90E3
:1005E0000895712CE5CF4F925F926F927F928F9218
:1005F0009F92AF92BF92CF92DF92EF92FF920F93B2
:100600001F93CF93DF9385E890E00E946D098133BB
:10061000944D89F0DF91CF911F910F91FF90EF9052
:10062000DF90CF90BF90AF909F908F907F906F9012
:100630005F904F90089584E890E00E946509482EED
:100640008823C1F180E8A82E80E0B82E98E7692EB3
:1006500090E0792EC4E1D0E0512CC5010E946509DB
:10066000C82EC3010E946D094C01CC20D1F0CA9460
:10067000D12C8FEFC81AD80ACC0EDD1E7E012FEFC9
:10068000E21AF20ACE010E94650984010F5F1F4F32
:10069000682FC4010E947D09E7014801EC14FD04A4
:1006A00069F753948FEFA81AB80A22E0620E711C02
:1006B0004510D3CF69E370E385E890E0DF91CF91F7
:1006C0001F910F91FF90EF90DF90CF90BF90AF9070
:1006D0009F908F907F906F905F904F900C948B09BC
:1006E0002F923F924F925F926F927F928F929F9242
:1006F000AF92BF92CF92DF92EF92FF920F931F9330
:10070000CF93DF93CDB7DEB760970FB6F894DEBF17
:100710000FBECDBF809118018031F9F08CE6809337
:10072000210180E18093220160960FB6F894DEBF2C
:100730000FBECDBFDF91CF911F910F91FF90EF9032
:10074000DF90CF90BF90AF909F908F907F906F90F1
:100750005F904F903F902F900895809114010E94D8
:100760009E06809118019E012F5F3F4F69018823EB
:1007700081F0790100E010E00E947407F701819395
:100780007F010F5F1F4F8091180190E00817190734
:100790009CF31F921F9284E090E09F938F93DF92CF
:1007A000CF921F9280E18F930E94970285E890E09C
:1007B0000E946D090FB6F894DEBF0FBECDBF813326
:1007C000944D21F080E980932101AECF84E890E040
:1007D0000E946509282E8823C9F180E8682E80E0F0
:1007E000782E98E7492E90E0592E04E110E0312C44
:1007F000C3010E946509882EC2010E946D097C0117
:100800008820D9F08A94912CFFEF8F1A9F0A800ECE
:10081000911E58012FEFA21AB20AC8010E94650961
:1008200067013FEFC31AD30A682FC7010E947D09F1
:1008300085017601A814B90461F733948FEF681A23
:10084000780A92E0490E511C2310D2CF69E370E37D
:1008500085E890E00E948B09B5CFCF93DF9380911C
:100860001801823049F08CE68093210182E0809368
:100870002201DF91CF91089580E090E00E946D0900
:10088000EC01809114010E949E068D2F0E949E060D
:100890008C2F0E949E0680E980932101DF91CF91E9
:1008A0000895EF92FF920F931F93CF93DF93CDB7ED
:1008B000DEB760970FB6F894DEBF0FBECDBF809154
:1008C0001801803199F08CE68093210180E18093BA
:1008D000220160960FB6F894DEBF0FBECDBFDF9148
:1008E000CF911F910F91FF90EF90089540E150E05C
:1008F00064E070E0CE0101960E94550980911401D8
:100900000E949E068E010F5F1F4F7E0181E1E80E5F
:10091000F11CF80181918F010E949E060E151F05A2
:10092000C1F780E980932101D4CF2F923F924F925B
:100930005F926F927F928F929F92AF92BF92CF926F
:10094000DF92EF92FF920F931F93CF93DF93CDB778
:10095000DEB7AC970FB6F894DEBF0FBECDBF809167
:1009600018018830F9F08CE68093210188E08093AB
:100970002201AC960FB6F894DEBF0FBECDBFDF915B
:10098000CF911F910F91FF90EF90DF90CF90BF908C
:10099000AF909F908F907F906F905F904F903F901F
:1009A0002F900895809114010E949E068091180155
:1009B000882399F07E0191E1E90EF11C00E010E03E
:1009C0000E947407D7018D937D010F5F1F4F8091A7
:1009D000180190E0081719079CF340E150E064E02B
:1009E00070E0CE0101960E945509C988DA88EB882B
:1009F000FC880D891E892F89388D49845A846B841F
:100A00007C844D855E856F8578894D8F5E8F6F8F75
:100A100078A369817A818B819C8169A37AA38BA356
:100A20009CA38D819E81AF81B8858DA39EA3AFA32A
:100A3000B8A7F0E28F2EF7E39F2EFFEEAF2EF6EC75
:100A4000BF2E49A65AA66BA67CA6D701C601880F61
:100A5000991FAA1FBB1F880F991FAA1FBB1F880FB2
:100A6000991FAA1FBB1F880F991FAA1FBB1F49A44C
:100A70005AA46BA47CA4840D951DA61DB71DB701B7
:100A8000A601E5E07695679557954795EA95D1F7E4
:100A90004D8C5E8C6F8C78A0440D551D661D771DA6
:100AA00084279527A627B727B701A601480D591D0A
:100AB0006A1D7B1D84279527A627B727081B190BBE
:100AC0002A0B3B0BD901C801880F991FAA1FBB1F16
:100AD000880F991FAA1FBB1F880F991FAA1FBB1F32
:100AE000880F991FAA1FBB1F49A15AA16BA17CA106
:100AF000840F951FA61FB71FB901A801E5E07695E1
:100B0000679557954795EA95D1F74DA05EA06FA0E0
:100B100078A4440D551D661D771D84279527A627AB
:100B2000B727B901A801480D591D6A1D7B1D8427EF
:100B30009527A627B727C81AD90AEA0AFB0A49EB5C
:100B4000841A49E7940A47E3A40A4EE9B40A09F073
:100B50007CCFC0921901D0921A01E0921B01F09251
:100B60001C0100931D0110931E0120931F0130935F
:100B7000200120E030E030911F0180911D01909113
:100B80001E01A0E0B0E0820F931FA11DB11D892BB3
:100B90008A2B8B2B21F082E680932101EACE82E022
:100BA00090E00E946D098C019C8F8B8F80911B01BE
:100BB00090911C0108171907F0F4E0901901F090CA
:100BC0001A0180E090E00E946D099701280F391FFB
:100BD0003A8F298F41E050E02F3F6FEF360710F436
:100BE00040E050E0240F351F2817390740F481E614
:100BF00080932101BECE83E680932101BACE0F5FA0
:100C00001F4F1C8F0B8F1F921F9282E090E09F93CB
:100C10008F93CE014B969F938F931F9282E08F9379
:100C200020E030E03F932F939E01275E3F4F3F939C
:100C30002F931F928F930E94970285E890E00E9465
:100C40006D090FB6F894DEBF0FBECDBF8133944D52
:100C500021F080E9809321018CCE84E890E00E940D
:100C60006509282E8823C9F180E8682E80E0782E57
:100C700098E7492E90E0592E04E110E0312CC30191
:100C80000E946509882EC2010E946D097C0188209E
:100C9000D9F08A94912CEFEF8E1A9E0A800E911E45
:100CA0005801FFEFAF1ABF0AC8010E94650967012A
:100CB0002FEFC21AD20A682FC7010E947D09850151
:100CC00076018A149B0461F733943FEF631A730A29
:100CD00042E0440E511C2310D2CF69E370E385E853
:100CE00090E00E948B09B5CFCF93DF9300D0CDB7B2
:100CF000DEB78A838A81882F90E082959295907FD3
:100D00009827807F98278071898382EB90E0FC018F
:100D100080818E32D0F385E290E02981FC0120832E
:100D200082EB90E0FC01108282EB90E0FC011082EB
:100D300000000F900F90DF91CF910895CF93DF9334
:100D400000D000D0CDB7DEB78C838C818B8381EB54
:100D500090E022E0FC01208382EB90E028E2FC019D
:100D6000208385E290E0FC01208185E290E0206113
:100D7000FC01208384E290E0FC01208184E290E089
:100D80002061FC01208380E00E9474061A8219828F
:100D90000DC08C810E9474069A818C8189278A8378
:100DA0008C8186958C8389818F5F89838981883046
:100DB00080F38A810E94740681E00E94740682EBAF
:100DC00090E0FC0180818E32D0F384E290E0FC015F
:100DD000208184E290E02F7EFC01208385E290E078
:100DE000FC01208185E290E02F7EFC01208382EBD4
:100DF00090E0FC0180818D35D0F383E290E0FC012E
:100E00008081882F90E080719927892B91F483E26B
:100E100090E0FC018081882F90E080719927892BD8
:100E2000B1F382EB90E026E1FC0120838B818C837F
:100E300098CF81EB90E0FC01108200000F900F90A2
:100E40000F900F90DF91CF910895CF93DF930F9282
:100E5000CDB7DEB782EB90E0FC0180818E32D0F31B
:100E600082EB90E0FC01108282EB90E0FC011082AA
:100E700082EB90E0FC0180818C30D0F383E290E043
:100E8000FC0180818071898382EB90E0FC0180818C
:100E90008731D0F383E290E0FC018081882F90E0DD
:100EA00080719927982F8981890F898382EB90E03F
:100EB000FC0180818232D0F383E290E0FC018081EA
:100EC000882F90E080719927982F8981890F8983D5
:100ED0008981882F90E0880F991F880F991F80784B
:100EE0000F90DF91CF910895CF93DF9300D000D082
:100EF000CDB7DEB781EB90E022E0FC01208384E2F5
:100F000090E0FC01208184E290E02F7EFC012083B0
:100F100085E290E0FC01208185E290E02061FC0107
:100F200020831A8283E290E0FC018081882F90E088
:100F300080719927892BB1F783E290E0FC018081D1
:100F4000882F90E080719927892BB1F782EB90E090
:100F5000FC01108282EB90E0FC0110821B8219825E
:100F60000FC00E9425078C838A8186959C81890FFA
:100F70008A839B818C8189278B8389818F5F898379
:100F80008981883070F30E942507982F8B818927EB
:100F90008B8382EB90E0FC0180818D35D0F38B81D7
:100FA0008823C9F085E290E0FC01208185E290E091
:100FB0002F7EFC01208384E290E0FC01208184E20A
:100FC00090E02061FC01208382EB90E0FC018081B5
:100FD000823AD0F394CF82EB90E0FC0180818B3891
:100FE000D0F381EB90E0FC0110828A810F900F908A
:100FF0000F900F90DF91CF910895CF93DF93CDB7EE
:10100000DEB764970FB6F894DEBF0FBECDBF80E8A1
:1010100080BF8FEF85B984B987B91AB888B98BB901
:1010200080E68093B60087E88093640066E071E014
:101030008CE00E945600109222019E012F5E3F4FCD
:1010400039019EE6392E2CE6222E1BC09091140108
:10105000923009F442C098F5992309F447C09130C1
:1010600009F040C0803109F46AC02092210180E17A
:10107000809322018CE60E949E06809122010E94AC
:101080009E060E947407809316010E947407809345
:1010900014010E947407809317010E9474078093C3
:1010A00015010E94740780931801109222019091FB
:1010B0001601903859F2309221018EE6DCCF933040
:1010C000F9F0943079F4823009F473C02092210150
:1010D00022E0209322018CE6CECF0E9495048091DD
:1010E0002101C9CF8DE680932101C5CF843009F459
:1010F00074C02092210184E0809322018CE6BBCF52
:10110000803109F0B2CF40E150E064E070E0CE0100
:1011100001960E945509809114010E949E068E013D
:101120000F5F1F4FF80181918F010E949E060615E7
:101130001705C1F7F0E9F093210180E99CCF81E028
:101140000E949E0680911801882391F0CE0101969D
:101150007C0100E010E00E947407F70181937F0199
:101160000F5F1F4F8091180190E0081719079CF33B
:101170001F921F9284E090E09F938F93E1E0F0E054
:10118000EC0FFD1FFF93EF931F92F0E1FF930E947E
:10119000970285E890E00E946D090FB6F894DEBFD3
:1011A0000FBECDBF8133944D81F180E98093210141
:1011B00062CF80E090E00E946D09182F092F84E033
:1011C0000E949E06802F0E949E06812F0E949E06EE
:1011D00030E93093210180E94ECF80E00E949E06E5
:1011E000809118018823A1F300E010E0F801E8598C
:1011F000FF4F84910E949E060F5F1F4F8091180140
:1012000090E00817190794F3E3CF84E890E00E9478
:1012100065098C8B882309F441C080E8482E80E062
:10122000582E28E730E03A8B298B04E110E01B8A26
:10123000C2010E946509D82E89899A890E946D0988
:101240007C01DD20E1F0DA948D2C912C3FEF831AA4
:10125000930A800E911E58018FEFA81AB80AC80190
:101260000E94650967019FEFC91AD90A682FC70153
:101270000E947D0985017601A814B90461F7EB8904
:10128000EF5FEB8BFFEF4F1A5F0A29893A892E5FD8
:101290003F4F3A8B298B3C893E13CACF69E370E3F9
:1012A00085E890E00E948B0980CFDC01CB01FC0136
:1012B000F999FECF06C0F2BDE1BDF89A319600B4AF
:1012C0000D9241505040B8F70895F999FECF92BD64
:1012D00081BDF89A992780B50895A8E1B0E042E071
:1012E00050E00C945709DC01CB0103C02D910E9402
:1012F0007E0941505040D0F70895262FF999FECF2E
:101300001FBA92BD81BD20BD0FB6F894FA9AF99A22
:101310000FBE019608950E947D09272F0C947E0927
:04132000F894FFCF6F
:1013240000000000FFFF76657273696F6E206669C6
:0413340076650000DA
:00000001FF
